:100000000C94E4020C940C030C940C030C940C035D
:100010000C940C030C940C030C940C030C940C0324
:100020000C940C030C940C030C940C030C940C0314
:100030000C940C030C940C030C940C030C940C0304
:100040000C940E160C940C030C940C030C940C03DF
:100050000C940C030C940C030C940C030C940C03E4
:100060000C94C60A0C940C0300000000003E5B4F89
:100070005B3E3E6B4F6B3E1C3E7C3E1C183C7E3C08
:10008000181C577D571C1C5E7F5E1C00183C180016
:10009000FFE7C3E7FF0018241800FFE7DBE7FF30A6
:1000A000483A060E2629792926407F050507407F14
:1000B00005253F5A3CE73C5A7F3E1C1C08081C1C87
:1000C0003E7F14227F22145F5F005F5F06097F017D
:1000D0007F006689956A606060606094A2FFA29468
:1000E00008047E040810207E201008082A1C080836
:1000F0001C2A08081E101010100C1E0C1E0C303884
:100100003E3830060E3E0E06000000000000005F84
:1001100000000007000700147F147F14242A7F2AA0
:100120001223130864623649562050000807030062
:10013000001C2241000041221C002A1C7F1C2A08AE
:10014000083E080800807030000808080808000011
:1001500060600020100804023E5149453E00427F85
:10016000400072494949462141494D331814127FD4
:100170001027454545393C4A494931412111090774
:100180003649494936464949291E000014000000F5
:1001900040340000000814224114141414140041C7
:1001A00022140802015909063E415D594E7C121184
:1001B000127C7F494949363E414141227F414141BC
:1001C0003E7F494949417F090909013E4141517337
:1001D0007F0808087F00417F41002040413F017FA8
:1001E000081422417F404040407F021C027F7F0470
:1001F00008107F3E4141413E7F090909063E4151B9
:10020000215E7F09192946264949493203017F01A8
:10021000033F4040403F1F2040201F3F4038403FA9
:10022000631408146303047804036159494D4300BF
:100230007F4141410204081020004141417F0402F6
:10024000010204404040404000030708002054548D
:1002500078407F284444383844444428384444286B
:100260007F385454541800087E090218A4A49C78BE
:100270007F0804047800447D40002040403D007F1A
:100280001028440000417F40007C047804787C08FA
:100290000404783844444438FC18242418182424CE
:1002A00018FC7C08040408485454542404043F44B3
:1002B000243C4040207C1C2040201C3C4030403CE2
:1002C00044281028444C9090907C4464544C440042
:1002D00008364100000077000000413608000201A6
:1002E0000204023C2623263C1EA1A161123A404092
:1002F000207A38545455592155557941225454780F
:1003000042215554784020545579400C1E527212A7
:100310003955555559395454545939555454580030
:1003200000457C410002457D420001457C407D1234
:1003300011127DF0282528F07C5455450020545496
:100340007C547C0A097F4932494949323A44444441
:100350003A324A4848303A4141217A3A424020787C
:10036000009DA0A07D3D4242423D3D4040403D3C7D
:1003700024FF2424487E4943662B2FFC2F2BFF09A2
:1003800029F620C0887E0903205454794100004496
:100390007D413048484A32384040227A007A0A0A81
:1003A000727D0D19317D2629292F282629292926F4
:1003B00030484D4020380808080808080808382F39
:1003C00010C8ACBA2F102834FA00007B00000814C3
:1003D0002A142222142A14085500550055AA55AA99
:1003E00055AAFF55FF55FF000000FF00101010FF39
:1003F00000141414FF001010FF00FF1010F010F094
:10040000141414FC001414F700FF0000FF00FF1484
:1004100014F404FC141417101F10101F101F1414D0
:10042000141F00101010F0000000001F101010101A
:100430001F10101010F010000000FF10101010100E
:1004400010101010FF10000000FF140000FF00FF4C
:1004500000001F10170000FC04F4141417101714E8
:1004600014F404F40000FF00F7141414141414140A
:10047000F700F7141414171410101F101F1414147D
:10048000F4141010F010F000001F101F0000001FE7
:1004900014000000FC140000F010F01010FF10FF1A
:1004A000141414FF141010101F00000000F010FFAF
:1004B000FFFFFFFFF0F0F0F0F0FFFFFF0000000093
:1004C00000FFFF0F0F0F0F0F3844443844FC4A4A17
:1004D0004A347E02020606027E027E0263554941CC
:1004E000633844443C04407E201E2006027E020203
:1004F00099A5E7A5991C2A492A1C4C7201724C3017
:100500004A4D4D303048784830BC625A463D3E49ED
:100510004949007E0101017E2A2A2A2A2A44445F91
:10052000444440514A444040444A51400000FF0185
:1005300003E080FF000008086B6B08361236243693
:10054000060F090F060000181800000010100030F8
:1005500040FF0101001F01011E00191D1712003C80
:100560003C3C3C00000000000000000800020100CC
:10057000000304070000000000000000010204085E
:1005800010204080010204081020010204081020FD
:100590000404040404040404020202020202030329
:1005A00003030303000000002300260029000000CD
:1005B0000000250028002B00000000002400270078
:1005C0002A00B304240AD10411241FBECFEFD8E0BF
:1005D000DEBFCDBF15E0A0E0B1E0E0E9F3E302C08B
:1005E00005900D92A437B107D9F726E0A4E7B5E04E
:1005F00001C01D92A239B207E1F715E0C6ECD5E0C3
:1006000004C02297FE010E943E19C23CD107C9F7DF
:100610000E94B4170C94BB190C94000086E795E077
:100620000E949F058BE795E00E949F0588E895E072
:100630000E9432058DE895E00E94320582E995E03E
:100640000C94610782E00E9488179093870580933D
:10065000860583E00E948817909385058093840522
:1006600020918605309187052130310531F46AE902
:1006700075E082E995E00C941209019731F46AE97A
:1006800075E082E995E00C94360982E995E00E94D4
:100690005D094AE955E0BC0182E995E00E946207E4
:1006A0008AE995E00E94011182E995E00E945D09C6
:1006B0004AE955E0BC0182E995E00C943A086AE900
:1006C00075E08DE895E00E9433058DE895E00E9485
:1006D0007805882349F082E995E00E945D09BC0114
:1006E0008DE895E00E9467058DE895E00E94700511
:1006F0004B9749F482E995E00E945D09BC0188E8C6
:1007000095E00E94670588E895E00E9478058111D0
:100710000CC088E895E00E947405892B31F06AE9E5
:1007200075E088E895E00C9433050895CF93DF9346
:1007300061E08AE995E00E94F71561E070E08AE9DE
:1007400095E00E94FD1540E050E066E270E08AE925
:1007500095E00E94F11560918205709183054AE051
:1007600050E08AE995E00E94A7180E945F038BE79A
:1007700095E00E94FB066AE975E0882329F08BE783
:1007800095E00E94C10504C08BE795E00E949506A4
:1007900086E795E00E94FB066AE975E0882329F068
:1007A00086E795E00E94C10504C086E795E00E94B7
:1007B00095060E9422038DE895E00E947005EC01E9
:1007C0008DE895E00E9474052AE935E0AE01BC0190
:1007D0008BE795E00E94FE0620918205309183050B
:1007E000280F391F309383052093820588E895E010
:1007F0000E947005EC0188E895E00E9474052AE9E2
:1008000035E0AE01BC018BE795E00E94FE06209129
:10081000820530918305280F391F3093830520937B
:1008200082058DE895E00E947005EC018DE895E069
:100830000E9474052AE935E0AE01BC0186E795E027
:100840000E94FE062091820530918305280F391FF2
:10085000309383052093820588E895E00E94700517
:10086000EC0188E895E00E9474052AE935E0AE01C4
:10087000BC0186E795E00E94FE062091820530913A
:100880008305280F391F30938305209382058091BB
:1008900080059091810582179307E9F061E08AE96C
:1008A00095E00E94F71560E070E08AE995E00E940B
:1008B000FD1540E050E066E270E08AE995E00E94B4
:1008C000F11560918005709181054AE050E08AE958
:1008D00095E00E94A71880918205909183059093DE
:1008E0008105809380058BE795E00E943A0786E7B3
:1008F00095E00E943A078091740580FD20C08BE747
:1009000095E00E94FB06882351F06AE975E08BE7C9
:1009100095E00E942B068BE795E00E94A00586E7F4
:1009200095E00E94FB06882351F06AE975E086E7AE
:1009300095E00E942B0686E795E00E94A005809135
:1009400074059091750501968A3091052CF4909369
:1009500075058093740504C0109275051092740596
:10096000DF91CF91089564E08AE995E00E94530FEA
:1009700082E995E00E94530782E995E00E945D09B3
:10098000BC018DE895E00E94200588E895E00E9472
:1009900029058BE795E00E947B0586E795E00C949E
:1009A0007B050C940E03CF93DF9360E082E00E94FE
:1009B000191760E083E00E94191721E04CE362E020
:1009C0008AE995E00E94E70F8AE995E00E9401110B
:1009D00060ED77E080E090E00E947B168AE995E088
:1009E0000E946C0F61E08AE995E00E94F71561E0D2
:1009F00070E08AE995E00E94FD1540E050E060E07B
:100A000070E08AE995E00E94F1156AE175E08AE9F3
:100A100095E00E940118C0E0D0E021E030E049E01C
:100A200050E0BE018AE995E00E949C0E2196CD37E8
:100A3000D10599F78AE995E0DF91CF910C940A18D6
:100A4000FC0184E390E0918380831482738362834A
:100A50000895FC0184E390E09183808313821282E5
:100A60001482089508950F931F93CF93DF93EC01A1
:100A70008B01488159814A30510514F1DB01ED9118
:100A8000FC916A817B810480F581E02D20E030E0DB
:100A9000C8010995488159814150510959834883BA
:100AA000D801ED91FC916A817B810480F581E02D74
:100AB00021E030E0C801DF91CF911F910F9109949F
:100AC00081E08C83DF91CF911F910F910895FC01FC
:100AD0007383628384E390E091838083148208951A
:100AE000FC01808191810895FC01828193810895A8
:100AF000FC0184810895CF93DF93EC018DE090E0B9
:100B00009B838A8381E08C8327E730E040E050E0DC
:100B100065E070E080E090E00E94D31879836883FC
:100B200027E730E040E050E065E070E080E090E0F2
:100B30000E94D31879836883DF91CF910895089537
:100B4000CF93DF93EC018C818823C1F08A819B8154
:100B500001969B838A838734910584F08DE090E031
:100B60009B838A8327E730E040E050E065E070E057
:100B700080E090E00E94D31879836883DF91CF9161
:100B80000895EF92FF920F931F93CF93DF938C0101
:100B9000EB01DC0112964D915C9113974C3051059D
:100BA0000CF452C0E881F9816D917C910480F5814B
:100BB000E02D21E030E0CE010995E881F981D801EE
:100BC00012964D915C9113976D917C916F5F7F4F61
:100BD0000480F581E02D21E030E0CE010995E12C83
:100BE000F12CE881F981D80112964D915C9113970F
:100BF000425051094E0D5F1D6D917C9161507109FC
:100C00000480F581E02D21E030E0CE010995E881F6
:100C1000F981D80112964D915C9113974250510978
:100C20004E0D5F1D6D917C916E5F7F4F0480F5814D
:100C3000E02D21E030E0CE010995BFEFEB1AFB0A71
:100C4000E5E0EE16F10469F6DF91CF911F910F9167
:100C5000FF90EF900895EF92FF920F931F93CF9321
:100C6000DF938C01EB01DC0112964D915C9113979F
:100C70004C3051050CF452C0E881F9816D917C91A2
:100C80000480F581E02D20E030E0CE010995E88177
:100C9000F981D80112964D915C9113976D917C91D9
:100CA0006F5F7F4F0480F581E02D20E030E0CE01C2
:100CB0000995E12CF12CE881F981D80112964D912A
:100CC0005C911397425051094E0D5F1D6D917C91BF
:100CD000615071090480F581E02D20E030E0CE0103
:100CE0000995E881F981D80112964D915C9113978D
:100CF000425051094E0D5F1D6D917C916E5F7F4F8B
:100D00000480F581E02D20E030E0CE010995BFEFB1
:100D1000EB1AFB0AE5E0EE16F10469F6DF91CF91DC
:100D20001F910F91FF90EF900895EF92FF920F9314
:100D30001F93CF93DF938C01EB01E881F981DC01F4
:100D400012964D915C9113976D917C910480F58181
:100D5000E02D20E030E0CE010995E881F981D8014D
:100D600012964D915C9113976D917C916F5F7F4FBF
:100D70000480F581E02D20E030E0CE010995E12CE2
:100D8000F12CE881F981D80112964D915C9113976D
:100D9000425051094E0D5F1D6D917C91615071095A
:100DA0000480F581E02D20E030E0CE010995E88156
:100DB000F981D80112964D915C91139742505109D7
:100DC0004E0D5F1D6D917C916E5F7F4F0480F581AC
:100DD000E02D20E030E0CE010995BFEFEB1AFB0AD1
:100DE00085E0E816F10469F6DF91CF911F910F912C
:100DF000FF90EF900895FC0184810895CF93DF93D5
:100E0000FC01CB01A081B181BD016150710968175E
:100E1000790771F4C281D3812296C417D50741F4B2
:100E20001482B901CF010E94950681E090E01FC0B5
:100E3000BD016E5F7F4F6817790731F4C281D3819E
:100E40002296C417D50761F3A817B90729F4628160
:100E500073816417750721F31196A817B90729F450
:100E60008281938184179507D9F280E090E0DF9129
:100E7000CF910895CF93DF93EC018C81811110C045
:100E800081E08C831B821A8227E730E040E050E04B
:100E900065E070E080E090E00E94D3187983688379
:100EA000DF91CF910895FC018BE490E091838083E2
:100EB00085E390E0938382831582148217821682E1
:100EC000089508958F929F92AF92BF92CF92DF9232
:100ED000EF92FF920F931F93CF93DF938C017B01CF
:100EE000EA01E881F981DC0112964D915C9113973A
:100EF0000480F581E02D21E030E0CE010995C12C80
:100F0000D12C5701B1E0AB1AB10847018FEF881A15
:100F1000980AE881F981D80112964D915C91139756
:100F20004C0D5D1D415051090480F581E02D21E0FB
:100F300030E0B701CE010995B3E0CB16D10414F12E
:100F4000E881F981D80112964D915C9113974C0D6F
:100F50005D1D0480F581E02D21E030E0B501CE017A
:100F60000995E881F981D80112964D915C9113970A
:100F70004C0D5D1D0480F581E02D21E030E0B401D1
:100F8000CE010995BFEFCB1ADB0A8BE0C816D1045E
:100F900009F0BFCF5701A5E0AA1AB10865014701C2
:100FA000B6E08B0E911CE881F981D80112964D9123
:100FB0005C911397475F5F4F0480F581E02D21E03E
:100FC00030E0B601CE010995E881F981D801129689
:100FD0004D915C911397485F5F4F0480F581E02D40
:100FE00021E030E0B601CE010995BFEFCB1ADB0A54
:100FF000C814D904C1F6C12CD12C85E0E80EF11C2F
:10100000E881F981D80112964D915C9113974C19A2
:101010005D09465F5F4F0480F581E02D21E030E0FF
:10102000B501CE010995E881F981D80112964D915B
:101030005C9113974C195D09465F5F4F0480F58101
:10104000E02D21E030E0B701CE010995BFEFCB1ACA
:10105000DB0A86E0C816D10499F6DF91CF911F9183
:101060000F91FF90EF90DF90CF90BF90AF909F9047
:101070008F9008958F929F92AF92BF92CF92DF92FE
:10108000EF92FF920F931F93CF93DF938C017B011D
:10109000EA01E881F981DC0112964D915C91139788
:1010A0000480F581E02D20E030E0CE010995C12CCF
:1010B000D12C5701B1E0AB1AB10847018FEF881A64
:1010C000980AE881F981D80112964D915C911397A5
:1010D0004C0D5D1D415051090480F581E02D20E04B
:1010E00030E0B701CE010995B3E0CB16D10414F17D
:1010F000E881F981D80112964D915C9113974C0DBE
:101100005D1D0480F581E02D20E030E0B501CE01C9
:101110000995E881F981D80112964D915C91139758
:101120004C0D5D1D0480F581E02D20E030E0B40120
:10113000CE010995BFEFCB1ADB0A8BE0C816D104AC
:1011400009F0BFCF5701A5E0AA1AB1086501470110
:10115000B6E08B0E911CE881F981D80112964D9171
:101160005C911397475F5F4F0480F581E02D20E08D
:1011700030E0B601CE010995E881F981D8011296D7
:101180004D915C911397485F5F4F0480F581E02D8E
:1011900020E030E0B601CE010995BFEFCB1ADB0AA3
:1011A000C814D904C1F6C12CD12C85E0E80EF11C7D
:1011B000E881F981D80112964D915C9113974C19F1
:1011C0005D09465F5F4F0480F581E02D20E030E04F
:1011D000B501CE010995E881F981D80112964D91AA
:1011E0005C9113974C195D09465F5F4F0480F58150
:1011F000E02D20E030E0B701CE010995BFEFCB1A1A
:10120000DB0A86E0C816D10499F6DF91CF911F91D1
:101210000F91FF90EF90DF90CF90BF90AF909F9095
:101220008F9008950F931F93CF93DF93EC018B0161
:10123000288139812150310937FD03C03983288342
:1012400002C01982188268817981A801CE010E94AA
:101250006207C8010E94011168817981A801CE014D
:10126000DF91CF911F910F910C943A080F931F9328
:10127000CF93DF93EC018B01288139812F5F3F4FA2
:10128000293731051CF43983288304C088E790E0AE
:101290009983888368817981A801CE010E946207C1
:1012A000C8010E94011168817981A801CE01DF91F6
:1012B000CF911F910F910C943A08FC01808191818C
:1012C00008958091F80590E02091F905821B91091D
:1012D00008952091F9058091F805281750F4E22F20
:1012E000F0E0E650FA4F808190E02F5F2093F905FF
:1012F00008958FEF9FEF0895E091F9058091F8052B
:10130000E81730F4F0E0E650FA4F808190E008955D
:101310008FEF9FEF08950895CF92DF92EF92FF92A3
:101320000F931F93CF93DF937C01CB018A01209110
:10133000D405222389F0EB016B01C40ED51ECC1518
:10134000DD0569F06991D701ED91FC910190F08183
:10135000E02DC7010995F3CF642F0E949D0AC801B3
:10136000DF91CF911F910F91FF90EF90DF90CF9081
:101370000895CF93DF931F92CDB7DEB76983209195
:10138000D4052223D1F02091D505203240F021E070
:1013900030E0FC013383228380E090E015C080912F
:1013A000D605E82FF0E0E952FA4F998190838F5FDC
:1013B0008093D6058093D50505C061E0CE010196E6
:1013C0000E949D0A81E090E00F90DF91CF910895F7
:1013D000FC011382128248EE53E060E070E0448327
:1013E00055836683778386E295E0918380830895B1
:1013F0001092F9051092F8051092D6051092D505B5
:101400000C94280A81E08093D4056093F70510922C
:10141000D6051092D50508950C94020A0F93062F55
:1014200021E04091D50567ED75E08091F7050E94B8
:10143000460A1092D6051092D5051092D4050F9148
:10144000089561E00C940E0A88EC95E00C94E8098C
:101450001092870681E0809385061092840661E0F1
:1014600082E10E94521761E083E10E945217E9EB8A
:10147000F0E080818E7F808380818D7F808388E40F
:101480008093B80085E48093BC0008950F934132A7
:1014900008F04AC0909187069111FCCF92E090939A
:1014A0008706009385069FEF90931A0610925F06B9
:1014B00040935E06FB0160E676E0DB019A2F961B07
:1014C000941718F491919D93F9CF109286069091FC
:1014D0008606880F892B809386068091840681304A
:1014E00061F410928406809186068093BB008091FF
:1014F000BC0083FDF8CF85EC01C085EE8093BC0075
:10150000222321F0809187068230E1F380911A0630
:101510008F3F61F080911A06803251F080911A0657
:10152000803341F483E007C081E005C080E003C060
:1015300082E001C084E00F910895613298F4209117
:101540008706243089F460933C06FC018EE396E024
:10155000DC012A2F281B261718F421912D93F9CF8F
:1015600080E0089581E0089582E0089585ED8093FC
:10157000BC008091BC0084FDFCCF109287060895CA
:1015800085EC8093BC001092870608951F920F92FD
:101590000FB60F9211242F933F934F935F936F9346
:1015A0007F938F939F93AF93BF93EF93FF9380911C
:1015B000B900887F803609F49EC078F5883209F436
:1015C0005DC090F4803109F456C038F4882309F4E2
:1015D000F5C0883009F44FC0F5C0883109F44EC019
:1015E000803209F45FC0EEC0803409F46AC058F458
:1015F000803309F457C0883309F0E4C080931A0699
:101600000E94C00ADFC0803509F44FC0883509F454
:101610005DC0883409F0D6C0D3C0883909F4C4C08D
:10162000A8F4883709F467C038F4883609F463C031
:10163000803709F460C0C6C0883809F4B5C0803965
:1016400009F45FC0803809F0BDC05BC0803B09F47D
:1016500083C038F4803A09F466C0883A09F47CC043
:10166000B1C0803C09F4A4C0883C09F4A1C0883B07
:1016700009F487C0A7C08091860610C090915F06CC
:1016800080915E06981770F5E0915F0681E08E0FFD
:1016900080935F06F0E0E05AF94F80818093BB00B1
:1016A00085EC83C080931A068BC0E0915F0681E0D1
:1016B0008E0F80935F068091BB00F0E0E05AF94FF7
:1016C000808390915F0680915E066BC0E0915F061B
:1016D00081E08E0F80935F068091BB00F0E0E05ABE
:1016E000F94F80838091850681116AC081E08093E3
:1016F000840684EA5EC083E08093870610921B060E
:10170000CFCF80911B06803208F04EC0E0911B06BF
:1017100081E08E0F80931B068091BB00F0E0E45EB9
:10172000F94F8083BDCF0E94C00A80911B06803292
:1017300030F4E0911B06F0E0E45EF94F1082609116
:101740001B0670E0E0918006F09181068CE196E046
:10175000099510921B0636C084E08093870610928C
:101760003D0610923C06E0918206F09183060995B1
:1017700080913C06811105C081E080933C06109267
:101780003E06E0913D0681E08E0F80933D06F0E03D
:10179000E25CF94F80818093BB0090913D0680917F
:1017A0003C06981708F47CCF85E88093BC000AC0FB
:1017B00085EC8093BC001092870604C010921A0634
:1017C0000E94B60AFF91EF91BF91AF919F918F91C7
:1017D0007F916F915F914F913F912F910F900FBE2D
:1017E0000F901F901895CF93CFB7F89480918806EB
:1017F000811127C0EAE9F5E08491E6E8F5E09491EB
:10180000E82FF0E0EE0FFF1FE854FA4FA591B491D6
:101810008C91892321F461E08AE00E94521761E0F3
:101820008AE00E9419178CB580618CBD8CB58064EC
:101830008CBD61E08DE00E94191761E08BE00E9491
:101840001917809188068F5F80938806CFBFCF914C
:1018500008950F931F93CF93DF93EC018D8982300E
:1018600061F08330D9F0813009F0C8C0EC81FD818E
:10187000E41BF50B3197DB0118C08C819D81DC01E5
:10188000A61BB70BBD018E819F81FC01E41BF50BEC
:10189000AF0141505109621B730BB0C0AE81BF81D3
:1018A000A61BB70BA21BB30BFA01F7FD05C18C8178
:1018B0009D81E817F9070CF0FFC0B7FF04C02A0F9D
:1018C0003B1FA0E0B0E08E819F81AD01420F531F0E
:1018D000841795071CF49C012A1B3B0B1216130658
:1018E0000CF0EAC0422F8A2F86958695869590E85F
:1018F000899FE00DF11D1124E65EFE4FA77069F18E
:1019000058E05A1B852F90E0EC01CE5EDE4F6881D7
:10191000251760F4DC01A21BB1098FEF90E00A2EBD
:1019200002C0959587950A94E2F768230130110566
:1019300039F048F00230110551F48081862706C045
:101940008081862B03C06095808186238083451724
:1019500008F4B2C0451BE058FF4F4830A0F10230F8
:101960001105A9F4DF01842F9C9190959C93A058B8
:10197000BF4F88508830C0F788EF840F86958695D2
:101980008695B0E88B9FE00DF11D112419C081E010
:101990000130110509F080E0982F9195EF01842F17
:1019A0009883C058DF4F88508830D0F788EF840F75
:1019B00086958695869590E8899FE00DF11D112406
:1019C000E058FF4F4770442309F476C0A42FB0E0DD
:1019D000A65FBE4F9C910130110541F050F00230DE
:1019E000110509F069C08081892706C08081892B93
:1019F00003C090958081892380835EC057FD5CC0C1
:101A00008E819F81481759070CF056C077FF04C09C
:101A1000260F371F60E070E08C819D81FB01E20F93
:101A2000F31F8E179F071CF49C01261B370B121601
:101A300013060CF041C0CA0157FD0796E3E09595E7
:101A40008795EA95E1F79695982F8827979587953A
:101A5000865E9E4F860F971F4770552761E070E0A6
:101A600001C0660F4A95EAF7462F0130110541F093
:101A700088F00230110501F5FC01280F391F15C04F
:101A8000FC01280F391FE217F307B1F08081842B86
:101A90008193F9CF6095FC01280F391FE217F307F6
:101AA00059F0808186238193F9CFE217F30721F063
:101AB000808184278193F9CFDF91CF911F910F917E
:101AC00008950F931F93CF93DF93FC018589823094
:101AD00069F08330E1F0813009F082C0C481D581A2
:101AE000C41BD50BC21BD30BDB0117C084819581AE
:101AF000DC01A61BB70BBD0161507109868197817E
:101B0000DC01A41BB50BAD01421B530B69C0A681C0
:101B1000B781A61BB70B1197EA01B7FD08C18681F3
:101B20009781A817B9070CF002C1D7FF04C02C0F8A
:101B30003D1FC0E0D0E084819581AE01420F531F6C
:101B4000841795071CF49C012C1B3D0B12161306E1
:101B50000CF0EDC0CD01B7FD079643E09595879554
:101B60004A95E1F79695982F882797958795865EF1
:101B70009E4F8C0F9D1FA770BB2741E050E00A2E9F
:101B800001C0440F0A94EAF7642F0130110549F0AF
:101B900098F00230110509F0CAC0FC01280F391F66
:101BA00017C0FC01280F391FE217F30709F4BFC063
:101BB0008081862B8193F8CF4095FC01280F391F37
:101BC000E217F30709F4B3C0808184238193F8CF2F
:101BD000E217F30709F4ABC0808186278193F8CF21
:101BE00077FDA5C084819581681779070CF09FC0A7
:101BF00057FF04C0240F351F40E050E086819781D5
:101C0000FA01E20FF31F8E179F071CF49C01241B9F
:101C1000350B121613060CF08AC0522F842F8695AE
:101C200086958695FB01B0E88B9FE00DF11D112490
:101C3000E65EFE4F477069F168E0641B862F90E016
:101C4000EC01CE5EDE4F4881261760F4DC01A21B5A
:101C5000B1098FEF90E00A2E02C0959587950A94FE
:101C6000E2F748230130110539F048F00230110540
:101C700051F48081842706C08081842B03C0409565
:101C8000808184238083561708F451C0561BE05886
:101C9000FF4F5830A0F102301105A9F4DF01852F64
:101CA0009C9190959C93A058BF4F88508830C0F766
:101CB00088EF850F869586958695B0E88B9FE00D19
:101CC000F11D112419C081E00130110509F080E0F7
:101CD000982F9195EF01852F9883C058DF4F88503A
:101CE0008830D0F788EF850F86958695869590E8A1
:101CF000899FE00DF11D1124E058FF4F57705523C7
:101D0000B1F0A52FB0E0A65FBE4F9C910130110548
:101D100039F048F00230110551F48081892706C05E
:101D20008081892B03C09095808189238083DF91F6
:101D3000CF911F910F910895CF92DF92EF92FF9272
:101D40000F931F93CF93DF937C018B01EA0169010D
:101D500077FDA0C00E940616081719070CF09AC05C
:101D6000D7FD98C0C7010E940A16C817D9070CF002
:101D700091C0C7010E940316823009F07FC0F701AD
:101D8000848195819C01201B310B8901015011092F
:101D900086819781FC01EC1BFD0BEF0121970BC0A5
:101DA000813049F4F701848195818C1B9D0BE801FA
:101DB0008C0101501109F1E0CF16D10431F010F17E
:101DC00032E0C316D104E1F165C0FE01D7FD3796BC
:101DD00083E0F595E7958A95E1F7F695FE2FEE27D6
:101DE000F795E795E00FF11FE65EFE4FC770DD2720
:101DF00081E090E00C2E01C0880F0A94EAF79081F0
:101E0000982B3AC0FE01D7FD3796A3E0F595E795EC
:101E1000AA95E1F7F695FE2FEE27F795E795E00FE7
:101E2000F11FE65EFE4FC770DD2781E090E00C2ECB
:101E300001C0880F0A94EAF78095908198231CC00E
:101E4000FE01D7FD379663E0F595E7956A95E1F7D2
:101E5000F695FE2FEE27F795E795E00FF11FE65E6A
:101E6000FE4FC770DD2781E090E00C2E01C0880F87
:101E70000A94EAF79081982790830CC0833009F088
:101E80008FCFF70186819781801B910B8E01EC012A
:101E9000219791CFDF91CF911F910F91FF90EF90FC
:101EA000DF90CF9008951F93CF93DF93EC01162F0F
:101EB00040E450E060E870E00E94581386E395E04B
:101EC000998388838FEF8C8F88A38E8F8D8F1F8F40
:101ED000DF91CF911F91089580E094E0EAE1F1E075
:101EE000DF019C011D9221503040E1F70895FC0173
:101EF00081A1882339F06EBD00000DB407FEFDCF2F
:101F00008EB5089588E090E030E8A4A1B5A14C9189
:101F100023A5209524232C93A2A1B3A122A5432F6E
:101F2000462321F04C91422B4C9304C04C912095B8
:101F300024232C93A4A1B5A12C9143A5242B2C934D
:101F40003695019711F708951F93CF93DF93EC0116
:101F5000162F8C8D8F3F09F1EEA1FFA180819CA5EA
:101F6000892B8083E8A5F9A590818DA5809589238B
:101F70008083EEA1FFA190818CA580958923808329
:101F8000CE010E94770FEEA1FFA180819CA5892B35
:101F90008083DF91CF911F9108958A8D682F7727D5
:101FA00067FD709588EC95E00E940C0A60E088EC73
:101FB00095E00E94B909612F88EC95E00E94B9096B
:101FC00088EC95E0DF91CF911F910C94210A0F933B
:101FD0001F93CF93DF93EC01162F022F6B8F4A8F45
:101FE0008C8D8F3F09F477C061E08E8D0E941917A8
:101FF00061E088A10E94191788A1992787FD909513
:10200000FC01E057FA4FE491F0E0EE0FFF1FE255BC
:10201000FA4F259134913FA32EA3FC01E458FA4FC7
:1020200084918CA78E8D992787FD9095FC01E057B0
:10203000FA4FE491F0E0EE0FFF1FE255FA4F2591C1
:10204000349139A728A7FC01E458FA4F84918DA751
:1020500089A1811134C061E08C8D0E94191761E063
:102060008D8D0E9419178D8D992787FD9095FC0104
:10207000E057FA4FE491F0E0EE0FFF1FE255FA4F00
:10208000259134913DA32CA3FC01E458FA4F84918F
:102090008BA78C8D992787FD9095FC01E057FA4F0F
:1020A000E491F0E0EE0FFF1FE255FA4F25913491D5
:1020B0003BA32AA3FC01E458FA4F84918AA789A183
:1020C000882369F00E94F30B8CB58C7F8CBD8DB595
:1020D00081608DBD04C088EC95E00E94F809002362
:1020E000E1F061E08F8D0E94191761E08F8D0E94F1
:1020F000521761E070E080E090E00E947B1660E0A3
:102100008F8D0E9452176AE070E080E090E00E949C
:102110007B1661E08F8D0E9452176EEACE010E94FD
:10212000A40F65EDCE010E94A40F60E8CE010E94CD
:10213000A40F68EACE010E94A40F6FE3CE010E94B3
:10214000A40F63EDCE010E94A40F60E0CE010E94B7
:10215000A40F60E4CE010E94A40F6DE8CE010E949E
:10216000A40F113011F460E101C064E1CE010E94BE
:10217000A40F60E2CE010E94A40F60E0CE010E9495
:10218000A40F61EACE010E94A40F68ECCE010E9468
:10219000A40F6AEDCE010E94A40F62E1CE010E945D
:1021A000A40F61E8CE010E94A40F113011F46FE971
:1021B00001C06FECCE010E94A40F69EDCE010E9418
:1021C000A40F113011F462E201C061EFCE010E9450
:1021D000A40F6BEDCE010E94A40F60E4CE010E941B
:1021E000A40F64EACE010E94A40F66EACE010E9409
:1021F000A40F6FEACE01DF91CF911F910F910C9444
:10220000A40F6F927F928F929F92AF92BF92CF92C4
:10221000DF92EF92FF920F931F93CF93DF93EC0126
:1022200060E00E94A40F60E1CE010E94A40F60E470
:10223000CE010E94A40F8C8D8F3F09F44FC070EB2C
:10224000772EC12CD12C672DCE010E94A40F62E005
:10225000CE010E94A40F60E1CE010E94A40F00E015
:1022600010E0C601865E9E4F5C01EEA1FFA1808159
:102270009CA5892B8083E8A5F9A580819DA5892B44
:102280008083EEA1FFA190818CA580958923808316
:10229000E12CF12C4501800E911EF401EE0DFF1D85
:1022A0006081CE010E94770F9FEFE91AF90A80E161
:1022B000E816F10491F7EEA1FFA180819CA5892B7E
:1022C0008083005F1F4F0038110579F690E8C90E32
:1022D000D11C739488EB7812B6CF54C06090B800CC
:1022E0008CE08093B80060EB762EC12CD12C672D4A
:1022F000CE010E94A40F62E0CE010E94A40F60E113
:10230000CE010E94A40F00E010E0C601865E9E4F41
:102310005C016A8D772767FD709588EC95E00E94D7
:102320000C0AE091C805F091C9050190F081E02DFB
:1023300060E488EC95E00995E12CF12C4501800ED4
:10234000911EF401EE0DFF1D608188EC95E00E9466
:10235000B9099FEFE91AF90A80E1E816F10489F753
:1023600088EC95E00E94210A005F1F4F003811059C
:1023700081F690E8C90ED11C739488EB7812B7CF20
:102380006092B800DF91CF911F910F91FF90EF9075
:10239000DF90CF90BF90AF909F908F907F906F9085
:1023A00008952F923F924F925F926F927F928F92F9
:1023B0009F92AF92BF92CF92DF92EF92FF920F93D4
:1023C0001F93CF93DF9300D000D0CDB7DEB74C0181
:1023D0007C836B836A015901C8018701AC014C19E8
:1023E0005D0957FF03C051954195510995016B81D6
:1023F0007C81261B370B37FF03C0319521953109AE
:1024000022242394312C2417350714F0212C312C4D
:102410002114310459F03A2D2B2D5C01832F922F7A
:102420003B812C81DC82CB82C32ED22EAB81BC813E
:10243000AA16BB065CF43C2D2D2D6C01832F922F28
:102440003B812C81BC82AB82A32EB22E2501EB8175
:10245000FC814E1A5F0A3C016C187D0877FE03C0B0
:10246000719461947108720157FE03C0FFEFEF1A77
:10247000FF0AF594E794C816D9062CF421E030E061
:102480003A83298324C06FEF7FEF7A8369831FC06B
:10249000D401ED91FC910480F581E02D9801211487
:1024A0003104D9F04B815C81B601C4010995E6186D
:1024B000F708F7FE06C0E981FA81CE0EDF1EE40CB4
:1024C000F51C2B813C812F5F3F4F3C832B836B811D
:1024D0007C81A616B706E4F604C0A6016B817C8158
:1024E000E4CF0F900F900F900F90DF91CF911F913D
:1024F0000F91FF90EF90DF90CF90BF90AF909F90A3
:102500008F907F906F905F904F903F902F900895A5
:102510006F927F928F929F92AF92BF92CF92DF92F3
:10252000EF92FF920F931F93CF93DF93EC015B0128
:102530006A0139014801E881F9810284F385E02DBF
:1025400087010995E881F981A601480D591D41507F
:1025500051090284F385E02D9301B501CE0109955F
:10256000E881F9810084F185E02D9401A601B5018F
:10257000CE010995E881F981B501660D771D61509D
:1025800071090084F185E02D9401A601CE01099521
:10259000DF91CF911F910F91FF90EF90DF90CF903F
:1025A000BF90AF909F908F907F906F900895EF9223
:1025B000FF920F931F93DC01ED91FC91240F351FC7
:1025C000215031090680F781E02D780189019B01B6
:1025D00009951F910F91FF90EF900895EF92FF9250
:1025E0000F931F93DC01ED91FC91260F371F2150B3
:1025F00031090680F781E02D78018A0109951F9144
:102600000F91FF90EF9008956F927F928F929F921B
:10261000AF92BF92CF92DF92EF92FF920F931F93F0
:10262000CF93DF935C014A0169013801EB01C60ECB
:10263000D71ECC15DD0574F4D501ED91FC91008415
:10264000F185E02D87019301A401BE01C501099523
:102650002196EFCFDF91CF911F910F91FF90EF90D7
:10266000DF90CF90BF90AF909F908F907F906F90B2
:102670000895EF92FF920F931F93DC01ED91FC916F
:1026800011971A960D911C911B9718962D913C91BC
:1026900019970684F785E02D7B0140E050E060E06B
:1026A00070E009951F910F91FF90EF9008950895A4
:1026B000FC01138212828EE495E0918380837583FE
:1026C0006483578346837187608753874287158A5F
:1026D000158614861786168621E0248B8FEF9FEFD0
:1026E000938B828B918B808B268B178A118E108E09
:1026F00008952F923F924F925F926F927F928F92A6
:102700009F92AF92BF92CF92DF92EF92FF920F9380
:102710001F93CF93DF93CDB7DEB76A970FB6F894C8
:10272000DEBF0FBECDBF1C0158874F831C870B87B0
:10273000FA86E986CC82DC0158964D915C915997D6
:102740004115510509F0A6C018968D919C911997D5
:10275000681779070CF056C11A968D919C911B97BA
:10276000EF81F885E817F9070CF04CC1D12CCB01AB
:102770003C81F6E03F9F800D911D1124181619062B
:102780000CF040C1C60103E0880F991F0A95E1F7DC
:102790004F815885840F951F181619060CF032C109
:1027A00057968C91811103C0203B08F02F5F7E87E4
:1027B0006D874B01198218E6A12E10E0B12EA61AE2
:1027C000B70A55E0259FA00CB11C112489818530E2
:1027D00039F0ED85FE85EA0DFB1D94919A8301C0C9
:1027E0001A826F8078842301A8E0AD83BA81B0FF9C
:1027F00012C0D101ED91FC91BC81B13031F4048063
:10280000F581E02D2B853C8518C00684F785E02DE9
:10281000EB84FC841DC0E985FA852B853C85E21795
:10282000F307E1F0D101ED91FC91BC81B13059F495
:102830000480F581E02D29853A85A2016D857E858C
:10284000C10109950BC00684F785E02DE984FA845F
:1028500086019601A301B401C1010995EA81E695BB
:10286000EA83FD81F150FD836C0C7D1C2FEF421A31
:10287000520AF111BBCF39813F5F39838C0C9D1C0B
:102880004D855E854F5F5F4F5E874D87363009F01F
:102890009DCFB8C0FA0134963491329785919491C6
:1028A000231BA7E02A9F800D911D1124FA01259179
:1028B0003491398B288BFC01459154915A8F498F63
:1028C000FC013296549159873196A491AF87319685
:1028D000E491FC013596249131968491BC81B2300B
:1028E00050F0622E772467FC7094E82FFF27E7FDF5
:1028F000F095FE87ED87FC81CF2ED12C6C9C40019A
:102900006D9C900C7C9C900C1124860E971EA12C23
:102910001982DE8ACD8AAB01420F511D27FD5A95DF
:102920005E834D83AF81B885A80FB11D87FDBA9531
:10293000B88FAF8B59818F85581708F063C0852FEA
:1029400090E02D853E85280F391F2C9DD0012D9DAF
:10295000B00D3C9DB00D1124EF81F885EA0FFB1FEF
:10296000FB83EA836D807E802401FA2D2D81F21B8A
:10297000FA8B4F89588D480F591F5C8B4B8B9A8966
:10298000960D862D2D81821B39858317B0F59770A2
:1029900061F4898D9A8D0196E889F989298D3A8D9E
:1029A000E20FF31FB4909A8F898FB7FE1DC0D1013B
:1029B000ED91FC91BC81B13059F40480F581E02D9A
:1029C0002B853C854B895C89B301C10109950CC0FD
:1029D0000684F785E02DEB84FC84860196014A810C
:1029E0005B81B201C1010995BB0CED89FE894E0ED8
:1029F0005F1EFFEF6F1A7F0AC2CFA30E49814F5FA0
:102A0000498398CF6A960FB6F894DEBF0FBECDBF4C
:102A1000DF91CF911F910F91FF90EF90DF90CF90BA
:102A2000BF90AF909F908F907F906F905F904F90EE
:102A30003F902F900895AF92BF92CF92EF92FF9266
:102A40000F931F93CF93DF93EC01262F888D998DE1
:102A5000009709F042C06A3069F42C898E859F8501
:102A600038E0239F800D911D11249F878E871D863E
:102A70001C86ABC06D3009F4A8C08E898823C1F0D4
:102A80003C898C859D8546E0349F800D911D1124E5
:102A900048855985841795075CF01D861C868E85B0
:102AA0009F85E8E03E9F800D911D11249F878E87B2
:102AB000EA88FB88088919894E855F856C857D8544
:102AC000CC88CE010E9479132C898C859D85F6E0F7
:102AD0002F9F800D911D112441C06A3079F41D860D
:102AE0001C864C89FC01369684912E853F85489F33
:102AF000200D311D11243F872E8767C06D3009F4EA
:102B000064C0AC014C5F5F4FFA013491631708F465
:102B10005CC03196E491E61708F457C0FA0144917D
:102B2000362F341BFC013296A590B490F7E03F9FFE
:102B3000A00CB11C1124F5013296A4913196E491B8
:102B4000AA2311F0E1110DC0F5013496A4902C894F
:102B50008C859D85A29E800D911D11249D878C875B
:102B600034C0F5013596E4913E89332309F13C895F
:102B7000B0E0AE0FB11DE7FDBA953A9FA0013B9FB3
:102B8000500D11246C857D85460F571F688579850A
:102B9000461757076CF01D861C86FC0136968491FB
:102BA0004E855F85389F400D511D11245F874E87EC
:102BB000EA88FB88088919894E855F856C857D8543
:102BC000CC88CE010E947913BFCF81E090E0DF91E5
:102BD000CF911F910F91FF90EF90CF90BF90AF904A
:102BE0000895FC01758764875787468708956111AA
:102BF00001C061E0FC01648B0895FC01738B628B62
:102C0000718B608B0895FC0185890895FC01808596
:102C100091850895FC018285938508951F920F92F6
:102C20000FB60F9211242F933F938F939F93AF93DF
:102C3000BF9380918A0690918B06A0918C06B091EB
:102C40008D063091890623E0230F2D3720F401965D
:102C5000A11DB11D05C026E8230F0296A11DB11DBF
:102C60002093890680938A0690938B06A0938C0606
:102C7000B0938D0680918E0690918F06A09190065C
:102C8000B09191060196A11DB11D80938E0690937F
:102C90008F06A0939006B0939106BF91AF919F913C
:102CA0008F913F912F910F900FBE0F901F9018950D
:102CB0003FB7F89480918E0690918F06A091900670
:102CC000B091910626B5A89B05C02F3F19F001963B
:102CD000A11DB11D3FBF6627782F892F9A2F620F44
:102CE000711D811D911D42E0660F771F881F991F7E
:102CF0004A95D1F708958F929F92AF92BF92CF924B
:102D0000DF92EF92FF926B017C010E9458164B01FB
:102D10005C01C114D104E104F104F1F00E94EF1848
:102D20000E945816681979098A099B09683E734000
:102D30008105910570F321E0C21AD108E108F1087C
:102D400088EE880E83E0981EA11CB11CC114D1042A
:102D5000E104F10429F7DDCFFF90EF90DF90CF90F1
:102D6000BF90AF909F908F900895789484B58260C3
:102D700084BD84B5816084BD85B5826085BD85B51F
:102D8000816085BDEEE6F0E0808181608083E1E8CE
:102D9000F0E0108280818260808380818160808306
:102DA000E0E8F0E0808181608083E1EBF0E0808109
:102DB00084608083E0EBF0E0808181608083EAE7DB
:102DC000F0E0808184608083808182608083808164
:102DD000816080838081806880831092C100089523
:102DE000833081F028F4813099F08230A1F0089589
:102DF0008730A9F08830B9F08430D1F48091800018
:102E00008F7D03C0809180008F778093800008952C
:102E100084B58F7702C084B58F7D84BD089580917D
:102E2000B0008F7703C08091B0008F7D8093B00099
:102E30000895CF93DF9390E0FC01E458FA4F24917A
:102E4000FC01E057FA4F8491882349F190E0880F04
:102E5000991FFC01E854FA4FA591B49182559A4FFD
:102E6000FC01C591D4919FB7611108C0F8948C9171
:102E7000209582238C93888182230AC0623051F48A
:102E8000F8948C91322F309583238C938881822BF8
:102E9000888304C0F8948C91822B8C939FBFDF9120
:102EA000CF9108950F931F93CF93DF931F92CDB7C8
:102EB000DEB7282F30E0F901E859FA4F8491F90183
:102EC000E458FA4F1491F901E057FA4F04910023A6
:102ED000C9F0882321F069830E94F0166981E02FF0
:102EE000F0E0EE0FFF1FE255FA4FA591B4919FB7A6
:102EF000F8948C91611103C01095812301C0812B3E
:102F00008C939FBF0F90DF91CF911F910F910895E8
:102F1000CF93DF93282F30E0F901E859FA4F8491DD
:102F2000F901E458FA4FD491F901E057FA4FC491EE
:102F3000CC2391F081110E94F016EC2FF0E0EE0FFF
:102F4000FF1FEC55FA4FA591B4912C912D2381E0F0
:102F500090E021F480E002C080E090E0DF91CF912A
:102F600008950E94AE1908950E94B5160E94B317E5
:102F70000E94D304C0E0D0E00E9496032097E1F3C2
:102F80000E940000F9CFCF92DF92EF92FF920F9351
:102F90001F93CF93DF937C016A01EB0100E010E007
:102FA0000C151D0571F06991D701ED91FC9101900F
:102FB000F081E02DC7010995892B19F00F5F1F4F94
:102FC000EFCFC801DF91CF911F910F91FF90EF904C
:102FD000DF90CF9008956115710581F0DB010D90B0
:102FE0000020E9F7AD0141505109461B570BDC01A8
:102FF000ED91FC910280F381E02D099480E090E056
:1030000008950C94EB17DC01ED91FC910190F08197
:10301000E02D099462E675E00C94EB178F929F9275
:10302000AF92BF92DF92EF92FF920F931F93CF93D5
:10303000DF93CDB7DEB7A1970FB6F894DEBF0FBE12
:10304000CDBF7C01F42FD52ECB0119A2223008F47C
:103050002AE08E010F5D1F4F822E912CA12CB12CE6
:103060006F2F7D2DA50194010E94F018F22FD32E11
:10307000CA01015011096A3014F4E0E301C0E7E32A
:10308000E60FD801EC93232B242B252B49F7B8010D
:10309000C7010E94EB17A1960FB6F894DEBF0FBED2
:1030A000CDBFDF91CF911F910F91FF90EF90DF90F7
:1030B000BF90AF909F908F900895CF92DF92EF9244
:1030C000FF920F931F93CF93DF93EC016A017B0173
:1030D0002115310579F4E881F9810190F081E02D25
:1030E000642FDF91CF911F910F91FF90EF90DF90B0
:1030F000CF9009942A303105E9F477FF1AC06DE2C8
:103100000E9403188C0144275527BA014C195D0908
:103110006E097F092AE0CE010E940E18800F911FD0
:10312000DF91CF911F910F91FF90EF90DF90CF90A3
:1031300008952AE0B701A601CE01DF91CF911F913A
:103140000F91FF90EF90DF90CF900C940E189A01A2
:10315000AB01662757FD6095762F0C945D18CF93D1
:10316000DF9300D000D0CDB7DEB79B01AC01611575
:1031700071058105910569F069833A834B835C830E
:103180000E94A01929813A814B815C810E94121909
:1031900003C060E070E0CB010F900F900F900F9094
:1031A000DF91CF910895CF92DF92EF92FF926B0162
:1031B0007C01621773078407950764F4CA01B9019B
:1031C0006C197D098E099F090E94AF186C0D7D1D39
:1031D0008E1D9F1DFF90EF90DF90CF900895089572
:1031E000A1E21A2EAA1BBB1BFD010DC0AA1FBB1F0B
:1031F000EE1FFF1FA217B307E407F50720F0A21B7D
:10320000B30BE40BF50B661F771F881F991F1A94E9
:1032100069F760957095809590959B01AC01BD0113
:10322000CF010895052E97FB1EF400940E942919E2
:1032300057FD07D00E94F01807FC03D04EF40C9401
:10324000291950954095309521953F4F4F4F5F4F2D
:10325000089590958095709561957F4F8F4F9F4F02
:1032600008950E944219A59F900DB49F900DA49FB0
:10327000800D911D11240895EE0FFF1F0590F4910C
:10328000E02D0994A29FB001B39FC001A39F700DD0
:10329000811D1124911DB29F700D811D1124911D5E
:1032A00008958F929F92AF92BF92CF92DF92EF924A
:1032B000FF92CF93DF93EC01688179818A819B81B2
:1032C000611571058105910521F464E279ED8BE5C5
:1032D00097E02DE133EF41E050E00E9412194901DF
:1032E0005A019B01AC01A7EAB1E40E9431196B01BC
:1032F0007C01ACEEB4EFA50194010E94B619C60E94
:10330000D71EE81EF91EF7FE06C081E0C81AD108D4
:10331000E10880E8F80AC882D982EA82FB82C70104
:10332000B6019F77DF91CF91FF90EF90DF90CF9024
:10333000BF90AF909F908F9008950E94511908956B
:1033400086E091E00E945119089560930601709300
:1033500007018093080190930901089581E090E0AE
:10336000F8940C94BB19B7FF0C9431190E943119D1
:10337000821B930B089515E0C6ECD5E004C0FE0156
:103380000E943E192296C83CD107C9F7F894FFCF96
:1033900000009206800001000000000103070F1FDB
:1033A0003F7F0080C0E0F0F8FCFE0000000000005D
:1033B000000000000000000000000000000000000D
:1033C00000000000000000000000000000000000FD
:1033D00000000000000000000000000000000000ED
:1033E000000000000000000000808080000000005D
:1033F00000000000000000000000008080C0C0004D
:1034000000000000000000000000000000000000BC
:1034100000000000000000000000000000000000AC
:10342000000000000000000000000000000000009C
:10343000000000000000000000000000000080C04C
:10344000E0F0F8FCF8E000000000000000000000E0
:1034500000000000000000808080808000808000EC
:10346000000000808080808000FFFFFF00000000DF
:103470008080808000008080000080FFFF808000CE
:1034800080800080808080008080000000000080BC
:103490008000008C8E84000080F8F8F88000000026
:1034A00000000000000000000000F0F0F0F0F0F07C
:1034B000F0F0F0F0F0F0E0E0C08000E0FCFEFFFF94
:1034C000FF7FFFFFFFFFFF00000000000000000083
:1034D0000000000000FEFFC70101010183FFFF00A3
:1034E000007CFEC70101010183FFFFFF0038FEC71A
:1034F0008301010183C7FFFF000001FFFF010100FD
:10350000FFFF0701010100007FFF80000000FFFFB7
:103510007F0000FFFFFF000001FFFFFF0100000030
:1035200000000000000000000000030F3F7F7FFF4D
:10353000FFFFFFFFFFFFE7C7C78F8F9FBFFFFFC3DF
:10354000C0F0FFFFFFFFFFFCFCFCFCFCFCFCFCF8F8
:10355000F8F0F0E0C00001030303030301030300DC
:103560000000000103030303010103010000000147
:103570000303030301010303000000030300000031
:103580000303000000000000000103030303030124
:10359000000000010301000000030301000000001F
:1035A0000000000000000000000000000080C0E0FB
:1035B000F0F9FFFFFFFFFF3F1F0F87C7F7FFFF1F58
:1035C0001F3DFCF8F8F8F87C7DFFFFFFFFFFFFFFD1
:1035D000FF7F3F0F070030300000000000000000B8
:1035E0000000000000000000000000000000FEFEDF
:1035F000FC000000000000000000000000000000CF
:1036000000000000000000E0C0000000000000001A
:10361000000000003030000000000000000000004A
:103620000000000000000000000000C0FEFFFFFFDF
:10363000FFFFFFFFFFFF7F7F3F1F0F071F7FFFFF82
:10364000F8F8FFFFFFFFFFFEF8E0000000010000B8
:10365000000000000000FEFE000000FCFEFC0C0666
:10366000060EFCF80000F0F81C0E0606060CFFFF24
:10367000FF0000FEFE00000000FCFEFC00183C7E87
:1036800066E6CE84000006FFFF0606FCFEFC0C0684
:1036900006060000FEFE0000C0F8FC4E4646464E00
:1036A0007C7840183C76E6CECC800000000000001C
:1036B0000000000000000000000000000000010702
:1036C0000F1F1F3F3F3F3F1F0F0300000000000080
:1036D0000000000000000F0F0000000F0F0F00009F
:1036E00000000F0F000003070E0C18180C060F0F38
:1036F0000F0000010F0E0C180C0F070100040E0C38
:10370000180C0F070000000F0F00000F0F0F000034
:10371000000000000F0F00000007070C0C181C0C25
:10372000060600040E0C180C0F0700000000000035
:103730000000000000000000000000000000000089
:103740000000000000000000000000000000000079
:103750000000000000000000000000000000000069
:103760000000000000000000000000000000000059
:103770000000000000000000000000000000000049
:103780000000000000000000000000000000000039
:103790000000000000000000000000000000000029
:1037A0000000000000000000000053434F52453A63
:1037B000200000000000B9098C09610969097C0931
:1037C0008B09000000001B15C3179C0ED111610D61
:1037D000290C8812041339135713000000001B151D
:1037E000C317B117D111D712EE128812041339136F
:1037F00057130D0A006E616E00696E66006F766683
:04380000002E000096
:00000001FF
